:020000040800F2
:1000000030080020A10100089F2500085F24000897
:100010009D250008C91000083127000800000000D5
:10002000000000000000000000000000A325000800
:100030000311000800000000A1250008A525000804
:10004000BB010008BB010008BB010008BB010008A0
:10005000BB010008BB010008BB010008BB01000890
:10006000BB010008BB010008BB010008CD1000085F
:10007000BB010008BB010008BB010008BB01000870
:10008000BB010008BB010008790F0008BB01000894
:10009000BB010008BB010008BB010008BB01000850
:1000A000BB010008BB010008BB010008BB01000840
:1000B000BB010008BB010008BB010008BB01000830
:1000C000BB010008BB010008BB010008BB01000820
:1000D000BB010008BB010008BB010008BB01000810
:1000E000BB010008BB010008BB01000800F002F8DA
:1000F00000F047F80AA090E8000C82448344AAF17B
:100100000107DA4501D100F03CF8AFF2090EBAE878
:100110000F0013F0010F18BFFB1A43F0010318473B
:10012000A8310000C8310000103A24BF78C878C157
:10013000FAD8520724BF30C830C144BF04680C60ED
:10014000704700000023002400250026103A28BF35
:1001500078C1FBD8520728BF30C148BF0B60704739
:10016000642900F07180002070471FB59DE80300EE
:1001700000F0F4FC00F0FCF91FBD10B500F061FACE
:1001800010BD00F0C4FA1146FFF7EFFF02F0F6FAD7
:1001900000F0B4FC03B4FFF7F0FF03BC00F050FE26
:1001A0000948804709480047FEE7FEE7FEE7FEE70B
:1001B000FEE7FEE7FEE7FEE7FEE7FEE70448054947
:1001C000054A064B7047000011260008ED000008A4
:1001D00030020020300800203004002030040020CD
:1001E0000FB4044910B503AA029800F093F910BCAB
:1001F0005DF814FB2801002070B50446856900688D
:10020000C10601D5302600E02026C00707D070BD0A
:10021000D4E9012130469047206A401C20626D1EBF
:10022000F6D570BD70B5044685690078C00707D162
:1002300070BDD4E9012120209047206A401C206233
:100240006D1EF6D570BD00002DE9F0410646002474
:1002500010687529314616A510D0AFF3008000282C
:1002600002DA404213A507E031688A0701D512A5DA
:1002700002E0490704D511A5012401E0AFF3008095
:1002800000210A2206F1240709E0B0FBF2FCB0FBD2
:10029000F2F302FB1C00303078541846491C002849
:1002A000F3D123462A463046BDE8F04100F0D8B8E5
:1002B000000000002D0000002B00000020000000C6
:1002C0002DE9F0474FF0000A89460446C0F820A007
:1002D0002046E1688847002876D0252806D0D4E952
:1002E00001219047206A401C2062F1E7E168204626
:1002F00000258847C4F81CA006460027C4F818A0AB
:100300002A2E09D0304602F024FA38B304EB8708CD
:10031000303EC8F8186019E059F8041B204604EB79
:1003200087029161E1688847012F064618D1E0698C
:10033000002820DA25F020051DE0D8F8180000EB91
:10034000800006EB40003038C8F818002046E1680D
:100350008847064602F0FDF90028EED1012F0AD0A9
:100360002E2E08D12046E16888477F1C0646022FC2
:1003700045F02005C4DBA069002803DA404245F0BF
:100380000105A061E80701D025F01005B6B1A6F17E
:100390004100192802D8203645F400654A46314606
:1003A000204625604D46FFF7DBFE58B1012806D0F8
:1003B000ED1D25F0070000F1080989E704E005F1CB
:1003C000040985E730468AE7206ABDE8F08710B562
:1003D000431C02E010F8011B71B18107FAD14FF004
:1003E000013202C88C1A8C4314EAC211F9D0C01A27
:1003F0000A0603D0C01E10BDC01A10BD0A0401D0E9
:10040000801E10BD0902FCD0401E10BD4FF000023E
:1004100000B5134694469646203922BFA0E80C50FA
:10042000A0E80C50B1F12001BFF4F7AF090728BFD5
:10043000A0E80C5048BF0CC05DF804EB890028BF51
:1004400040F8042B08BF704748BF20F8022B11F07A
:10045000804F18BF00F8012B7047704770477047F6
:100460002DE9F0470D4699469246044600F12408CE
:100470000168880604D5E06921F01001216000E0E0
:100480000120A84201DD471B00E00027A1697A197D
:1004900002EB0900081AA0612078C00602D42046A9
:1004A000FFF7AAFE002608E0D4E901211AF80600A9
:1004B0009047206A401C761C20624E45F4DB207871
:1004C000C0060AD52046FFF797FE06E0D4E90121D1
:1004D00030209047206A401C2062381EA7F1010797
:1004E000F4DC07E0D4E9012118F805009047206A00
:1004F000401C2062281EA5F10105F3DC2046FFF711
:1005000091FE2078000602D50220BDE8F087012088
:10051000FBE70000074B70B50D467B4400F011F877
:100520000446284600F020F810B14FF0FF3070BDAF
:10053000204670BD4322000001694A1C0261087810
:10054000704700B58FB0CDE9013100210591054913
:100550007944CDE9031011466846FFF7B1FE0FB0AC
:1005600000BD0000E5FFFFFF007B00F0800070474A
:1005700010B542485421FFF749FF41485421FFF785
:1005800045FF40485421FFF741FF3F493B483C4A63
:100590003F4B08603D490A603A491960531C0365A6
:1005A000481C1065012008653B48344A39A178444D
:1005B00000F008FA20B9384878440A3800F0A4FA64
:1005C00037482F4A35A1784400F0FCF920B9344867
:1005D00078440A3800F098FA32482A4A2FA1784421
:1005E00000F0F0F920B92F4878440A3800F08CFA6E
:1005F00040232248DC000021224600F0BFF920B150
:1006000025487844543800F07FFA1D48224640239C
:10061000002100F0B3F920B121487844543800F0AB
:1006200073FA184822461023002100F0A7F9002889
:1006300006D01C487844BDE81040563800F064BA33
:1006400010BD104870B5006D20F001040B4800F09B
:100650002FFA0B4800F02CFA0A4800F029FA09E0BA
:10066000206D20F00105204600F022FA204600F01F
:1006700073F82C46002CF3D170BD0000D40000208C
:10068000280100207C010020100000201400002020
:1006900018000020720000000A2D00007700000002
:1006A000F62C0000E22C00000EB5CDE90001FFF7AA
:1006B0008EFE029069460120ABBE0EBD08B56946AC
:1006C00000900220ABBE08BD1FB58DE8070069464B
:1006D0000520ABBE04B010BD1FB58DE80F00694604
:1006E0000620ABBEF6E708B5694600900920ABBE10
:1006F00008BD1CB5CDE9000169460A20ABBE1CBD92
:10070000704708B5694600900C20ABBE08BD754621
:1007100000F002FAAE4605006946534620F0070095
:10072000854618B020B5FFF749FDBDE820404FF0E1
:1007300000064FF000074FF000084FF0000B21F0CB
:100740000701AC46ACE8C009ACE8C009ACE8C00998
:10075000ACE8C0098D46704770B50446051F00F02F
:10076000E1F90068002C14BF446870BD002C18BF6C
:10077000AC423CBF20466468F8D301680A18AA421C
:1007800018BF456003D12A680546114401602868F6
:100790004119A1421CBF6C6070BD6168696021682D
:1007A0000844286070BD2DE9F04705460C46C8682E
:1007B00020F4201040F48000C860800602D508466E
:1007C00000F0FDFAE06841F282014FF0FF3901408C
:1007D000022903D0204600F09BFAB5E000F4204146
:1007E000B1F5004F0FD1C00306D56168E06A8842B9
:1007F00000D80846606006E02069E06260606069D9
:10080000FFF77FFFA061A0680022EEB200280DDA9A
:10081000E1688B050AD4C043A06041F490302260A7
:10082000E0606068411C61600670A5E0E068904689
:10083000226040F40050E060206968BB6069FFF707
:1008400052FF012704F12405A0B1A08910F4407FD4
:1008500008D0E06900F0B1F9206118B1E06840F417
:10086000006016E0E7612561E06820F4407040F424
:1008700080600EE0E06900F0A0F900282061F1D06E
:10088000E06840F4006010F4407FE06002D140F482
:100890008070E06020696060E06825696FF0010A9F
:1008A000C1051FD56168E06A884200D80846411B2F
:1008B00004D02246284600F035FAF0BBE068010279
:1008C00003D5E562C4E9015854E0691CE162616046
:1008D000E16940F48030491EC4E9021030462E70B0
:1008E000BDE8F087010202D500F480320AE06068BA
:1008F000411C61600670E0680A2E40F48030E060C0
:1009000006D00022E16A6068814203D90B4602E00A
:100910000122F7E70346A7895B1B7F0503D4E7693C
:100920009F4200DDE2B1814200D80146E5620F1A24
:10093000C4E90158002B09DD00E005E02246194614
:10094000284600F0EFF908B14846C9E747B1A06969
:10095000E5626560C01BA061E06840F01000E060E7
:10096000E068000208D56168A069E562491B084497
:100970006560A0615046B3E73046B1E770B5C46822
:10098000A50713D0650211D4B2F5807F09D0B2F566
:10099000007F06D0B2F5806F08D1012300F1240159
:1009A00006E05D1E6FF07F46B54201D3012070BDA9
:1009B0000161C361416024F470611143C160002092
:1009C00070BD00002DE9F0410C4607461646104662
:1009D00000F06EF82078611C61280AD0722802D0DD
:1009E00077283CD102E00125002405E002250424FB
:1009F00002E0082448F2020511F8010B2B2806D06A
:100A0000622809D011F8010C74280AD00BE045F0D7
:100A1000030544F00204EFE745F0040544F0010447
:100A2000EAE744F0100438462146FFF73DFE411C3A
:100A300015D00021316171604FF40071F560F161F2
:100A40007061200704D530460222002100F0E4F84E
:100A5000306D40F0010030653046BDE8F081002087
:100A6000FBE72DE9F0410D460646104C206DC1070D
:100A700004D0410804D020F00104F7E722460EE03C
:100A8000542000F09AF807000ED0206D47F00101C5
:100A90000843542120653846FFF7B8FC3A462946FA
:100AA0003046BDE8F0418DE70020D6E7D4000020B5
:100AB0002DE9F04704464FF000094FF0FF37C568B5
:100AC000D4E90486A80707D0204600F055F930463F
:100AD000FFF7F4FD002802DA3846BDE8F087280564
:100AE00002D54046FFF738FE4C212046FFF78EFC2A
:100AF000206D20F0010020654846EEE70446AFF384
:100B000000802046FFF746FB10B500F07FF9BDE8F6
:100B1000104000F075B9000000487047D001002077
:100B20007047000000487047D801002070477047A8
:100B30007047704738B504460A4600206946AFF34F
:100B40000080002808BF38BD02460099204600F00A
:100B500084F9012038BD012000F0D3B9F8B5AFF316
:100B60000080054600200C46102000BF0646A8194C
:100B7000A0420DD9324669460020AFF3008007003D
:100B800008BF00F0BEF90098A04218BF0546C4197E
:100B9000FFF7C8FF05600746F01D20F00700461963
:100BA000284600F053F9B44208BFF8BDA21B3146F5
:100BB0003868BDE8F84000F050B970B50646FFF758
:100BC000B1FF056806F10B0020F00704B4429CBF9A
:100BD000002070BD2B466A68BAB11068A04210D3DD
:100BE00004F1080188423CBF5068586007D351683F
:100BF000101941601168091B016058601460101DD4
:100C000070BD13465268002AE7D121462846FFF7F7
:100C100091FF0028DED170BD2DE9F0410446164653
:100C20000D464769007B80072ED03846FFF75BFDF5
:100C300050BB3EB3012E02D0022E25D104E0204647
:100C400000F025F905441DE03846FFF75AFDE1683C
:100C5000002841F01001E16005DA204600F058F864
:100C60000120BDE8F081C9030BD56268E16A9142B9
:100C700000D81146A26911442269891A814200DD17
:100C800008460544002D01DA0220EAE7E16A6068BF
:100C9000E268814206D29103E06203D522F400317A
:100CA00041F01002A6690027AE4213DCE16A8142DE
:100CB00001D90B4600E0034603EB060C2369ACEBBD
:100CC000030CAC4506DD814201D98C4600E0844628
:100CD0009C4505D1A760276042F02000A5620DE089
:100CE000AD1BE669AE1B8142A66000D90846C01A5A
:100CF000281A20605819606022F02000034908403B
:100D0000E060002084F84870ABE70000BFCFD7FF59
:100D1000C16821F4001141F08001C16000218160AF
:100D2000016070472DE9F047814614460E464FF0AA
:100D3000FF383248D5685769054209D03846A1695D
:100D4000FFF7D7FC002811DB2C48C0430540E560C5
:100D50002B46324649463846FFF7B6FCA16920F0DB
:100D60000042B21A11440028A16103D02046FFF7C7
:100D7000CFFF4046BDE8F08770B504460569C06AFC
:100D80006168884200D80846E16821F42011E160DA
:100D9000C90312D5A84208D02246411B2846FFF7B6
:100DA000C1FF10B14FF0FF3070BD0020E562C4E913
:100DB0000150E06820F48030E060002070BD10B584
:100DC0000446C06820F02000E060A16AA069884263
:100DD0000DD02046FFF7D0FFE06820F4405040F0EF
:100DE0001000E060A06AA0612069E062606044F2E7
:100DF0004001E0688843E06010BD00001000020080
:100E0000002801D000F01CB87047000010B5014662
:100E100002A000F05DF8012010BD000053494752C8
:100E2000545245443A2052656469726563743A20AD
:100E300063616E2774206F70656E3A2000000000B9
:100E400001491820ABBEFEE7260002000021016028
:100E5000C0E90110704710207047034640688C4677
:100E6000002818BF88423CBF03464068F8D3186882
:100E70001844884207D00CF1030020F00700001D41
:100E8000411A521A0146081D0A60FFF765BC10B5E9
:100E90000146C268900703D0900607D5886A0AE029
:100EA00000F03EF801210160881E10BD8B69486882
:100EB00018440B69C01A91F848301BB191F84910D9
:100EC000401A10BD1103FCD50028FADD401E10BDEC
:100ED00070B505460C460A2000E06D1C00F018F8BD
:100EE00035B128780028F8D102E0641C00F010F831
:100EF00014B120780028F8D1BDE870400A2000F035
:100F000007B810B500F010F8BDE81040FFF778BF43
:100F100008B569468DF800000320ABBE08BD00008F
:100F200000487047D001002010B5012805D00021ED
:100F300003A0FFF7CDFF012010BD09A1F8E70000D5
:100F400053494752544D454D3A204F7574206F66B2
:100F50002068656170206D656D6F7279000000001A
:100F60003A2048656170206D656D6F727920636FFE
:100F70007272757074656400014800F0B4B90000C5
:100F80001C00002070B5044600688168C943C90789
:100F900017D1816821F00101816000F095FD0546BF
:100FA0000AE000BF00F090FD401B022804D9206831
:100FB0008068C043C00706D020688068C043C0076F
:100FC000F0D0002070BDA06A40F01000A062E06A7E
:100FD00040F00100E062012070BD10B50146406A9A
:100FE000826A12F0500F05D0006A026BBDE8104013
:100FF00008461047816A41F400718162016889687E
:10100000C1F3424107290CD1017B51B9816A21F416
:1010100080718162816AC90403D4816A41F001014F
:10102000816200F05DF910BD10B5406A816A41F03F
:1010300040018162C16A41F00401C16200F052F9CD
:1010400010BD10B5406A00F04CF910BDF8B500268F
:101050000446009600688168C943C9072DD081689D
:1010600041F001018160164816490068B0FBF1F0BB
:1010700000E0401E00900028FBD100F025FD054651
:1010800016E000BF00F020FD401B022810D92068A8
:101090008068C043C0070BD0A06A40F01000A06277
:1010A000E06A40F00100E06284F824600120F8BDAD
:1010B00020688068C043C007E4D10020F8BD00006C
:1010C0000C00002040420F00FEE70000014800F045
:1010D000E3BA00004C00002030B590F840500124E5
:1010E000AC40C56B6C60046863604368102B036898
:1010F00003D099600068C26030BD9A600068C1602A
:1011000030BD704772B6FEE7F8B50025044600957D
:1011100090F82400012808D0012084F824002046FB
:10112000FFF730FF060002D053E00220F8BDA06AAE
:1011300020F4885040F00200A062022000F062FD1E
:1011400026490968B1FBF0F0400000E0401E009025
:101150000028FBD12046FFF779FF2068816841F025
:101160000801816000F0B0FC074608E000F0ACFC2C
:10117000C01B0A2803D920688068000715D420689E
:1011800080680007F2D42068816841F00401816022
:1011900000F09AFC074612E000F096FCC01B0A28FB
:1011A0000DD920688068400709D5A06A20F00200A8
:1011B00040F01000A06284F824500120F8BD20689F
:1011C00080684007E8D4A06A20F0020040F00100E7
:1011D000A06284F824503046F8BD00000C000020C6
:1011E00070470000F8B50024009490F824202546AC
:1011F000012A12D0012280F824204A681F23072ADE
:101200000DD20668776B521E02EB820293409F4319
:101210000B6893401F43776319E00220F8BD06680E
:101220000D2A0AD2376BD21F02EB820293409F43F2
:101230000B6893401F43376309E0F76A0D3A02EBEE
:10124000820293409F430B6893401F43F7620A68F2
:10125000072306680A2A0AD3F7680A3A02EB420211
:1012600093409F438B6893401F43F76008E03769C2
:1012700002EB420293409F438B6893401F433761C8
:101280000A68102A01D0112A20D1124B02689A4212
:1012900017D193681B0219D4936843F40003936039
:1012A0000968102912D10C490C4A0968B1FBF2F106
:1012B00001EB8101490000E0491E00910029FBD1AA
:1012C00004E0816A41F020018162012480F8245009
:1012D0002046F8BD002401400C00002040420F00D1
:1012E00070477047704710B504460068416889062A
:1012F00026D50168890723D5A16AC90603D4A16A46
:1013000041F40071A1628168C1F34241072910D103
:10131000217B71B9416821F020014160A06A20F46D
:101320008070A062A06AC00403D4A06A40F00100EB
:10133000A0622046FFF7D4FF21686FF0120008601A
:101340002068416809062ED5016849072BD5A16A96
:10135000C90603D4A16A41F40051A1628168C1F3B6
:101360000231072909D04168490515D48168C1F3C4
:101370004241072910D1217B71B9416821F08001D8
:101380004160A06A20F48050A062A06AC00503D426
:10139000A06A40F00100A0622046FFF721FF21680B
:1013A0006FF00C0008602068416849060DD50068A0
:1013B000C0070AD0A06A40F48030A062204600F046
:1013C00093F821686FF00100086010BD2DE9F0412D
:1013D0004FF0000704003D467ED0A06A002628B9E1
:1013E000E66284F82460204600F080F82046FFF78B
:1013F000C9FDA16A01F01001014304D0A06A40F0C8
:101400001000A06268E0A16A21F4885141F0020155
:10141000A1626268E169237B0A4347EA43010A4308
:10142000A1684FF48077B94208D0012906D0002185
:1014300094F814C0BCF1010F02D00AE03946F7E776
:10144000F3B1A36A43F02003A362E36A43F001030C
:10145000E3622368D3F804C02CF4694C4CEA010C15
:10146000C3F804C023689968DFF870C001EA0C0172
:1014700011439960A168B9420BD0012909D00CE051
:10148000DFF85CC0A3690CEB43330B4343F400610A
:10149000DFE7218A0D05A5F580152168CB6A23F4C5
:1014A00070032B43CB62216889680E4B194091422F
:1014B00008D1E662A16A21F0020141F00101A162B6
:1014C000BDE8F081A06A20F0020040F01000A062A8
:1014D000E06A40F00100E0620120F1E7FDF7E1FF82
:1014E00000E0FFFFFE0E1FFF7047000070B586B0E2
:1014F00000250646009501950295039500681E4952
:10150000884236D11D49886940F400708861886935
:1015100000F400700490886940F0040088618869D4
:10152000694600F004000490F02000900320019030
:10153000134800F0D3F9144C1248C4E90005802088
:10154000C4E9025040002061800060612020C4E9AD
:101550000605204600F04AF908B1FFF7D3FD3462D2
:10156000002211461220666200F01AFB122000F0E1
:1015700009FB06B070BD00000024014000100240CD
:1015800000080140080002404C0000202DE9F0470F
:10159000894604463B4900683B4F0E1D90468842F1
:1015A00001D0B84207D1306810F4702F03D0012564
:1015B0002846BDE8F08794F8240001280CD00120CB
:1015C00084F824002046FFF741FD05004FF000009D
:1015D00004D084F82400EBE70220EAE7A16A40F691
:1015E0000162914341F48071A1622168B94218D12E
:1015F000326812F4702F14D0A16A41F48011A162F4
:101600003168490505D5A16A21F4005141F48051A2
:10161000A162A16AC9040AD5E16A21F00601E1626A
:1016200006E0A26A22F48012A2624968E9E7E06259
:1016300084F82400216A15488862216A1448C86227
:10164000216A1448086321686FF00200086020686E
:10165000816841F480718160216843464A464C317B
:10166000206A00F0F1F820688168C1F3424107293F
:10167000816803D041F48011816099E741F4A001B1
:10168000FAE700000024014000280140DB0F0008B9
:1016900043100008291000082DE9F05FC16B0C68A9
:1016A00001680B68D0F840C0042202FA0CF2494DE0
:1016B000DFF824A1494E4A4FDFF828B1DFF828E1CE
:1016C00022422CD05A072AD50A68920603D40A6807
:1016D00022F004020A600168A94201D1042219E043
:1016E000514501D1402215E0B14202D14FF4806250
:1016F00010E0B94202D14FF480420BE0594502D1CB
:101700004FF4802206E0714502D14FF4800201E0DF
:101710004FF080622F4908394A60C16A3BE04FF0C0
:10172000020808FA0CF818EA040F4FF000094FF00D
:10173000010235D05FEA837832D50B689B0605D469
:101740000B6823F00A030B6080F821200168A9428E
:1017500001D1022219E0514501D1202215E0B14208
:1017600002D14FF4007210E0B94202D14FF400529E
:101770000BE0594502D14FF4003206E0714502D129
:101780004FF4001201E04FF00072124908394A602C
:1017900080F82090816A00291AD0BDE8F05F0847E0
:1017A000082505FA0CF5254212D01B0710D50B6849
:1017B00023F00E030B6090F84010C36B02FA01F1A6
:1017C0005960826380F8212080F82090016BE2E765
:1017D000BDE8F09F080002401C00024030000240BB
:1017E00044000240580002406C00024030B528B36B
:1017F00008C8134914221944B1FBF2F18900C163EE
:1018000010498163022141771A6843F6F0718A43D7
:10181000D0E900142143D0E902452C432143046957
:101820002143446921438469214311431960002104
:101830004163012242770177084630BD012030BD67
:10184000F8FFFDBF0000024070B5044690F820008C
:10185000002501280CD0012084F8200094F8216094
:101860000020012E06D084F820000225284670BDF5
:10187000022070BD022684F82160A06320680668FB
:1018800026F0010606602046FFF726FCE06A0028E5
:101890002068016802D041F00E0106E021F0040149
:1018A00001602068016841F00A0101602068016858
:1018B00041F001010160D9E770B5044600F004F978
:1018C0000546601C02D004480078044400F0FCF88F
:1018D000401BA042FAD370BD000000202DE9F84F54
:1018E000DFF8B891002409F1040A0AF1040B234639
:1018F0000F270BF1040EC9E00125A5402A40AA429A
:101900007DD1674ED1F804C0ACEB0608B44532D0A7
:1019100014DCBCF1030F3AD009DCBCF1000F2AD073
:10192000BCF1010F1CD0BCF1020F31D11DE0BCF1A4
:10193000110F17D0BCF1120F2AD119E0B8F5881F8A
:1019400019D006DCB8F5803F15D0B8F5801F1FD13F
:1019500011E0B8F5001F0ED0B8F5041F18D10AE049
:10196000CB6815E0CB681B1D12E0CB6808330FE095
:10197000CB680C330CE08B682BB1012B4FF00803C4
:1019800003D0456104E0042302E0056100E0002388
:10199000FF2A01D8064601E000F104064FEA84055B
:1019A00001D9A5F12005D6F8008007FA05FC28EA40
:1019B0000C0803FA05F548EA0508C6F800804D68EA
:1019C000ED0062D5374DAE6946F00106AE61AD69F6
:1019D00024F0030605F001050095334D06EB050CD8
:1019E000DCF80850A607360F07FA06F825EA0805BE
:1019F000DFF8B880404503D14FF0000817E044E01D
:101A0000DFF8AC80404502D14FF001080FE0DFF86D
:101A1000A480404502D14FF0020808E0DFF898802A
:101A2000404502D14FF0030801E04FF0040808FAE6
:101A300006F848EA0508CCF808804D68D9F8006037
:101A4000ED034D4601D5164300E096432E604D68E8
:101A5000DAF80060AD03554601D5164300E0964321
:101A60002E604D68DBF80060ED025D4601D516433F
:101A700000E096432E604D68DEF80060AD027546CA
:101A800001D5164300E096432E60641C0D682A467B
:101A9000E5407FF431AFBDE8F88F0000000401405D
:101AA0000000111000100240000001400008014039
:101AB000000C014000100140001401408068084003
:101AC00000D0012070470000014880687047000086
:101AD000000000200248816802781144816070474C
:101AE00000000020074810B5016841F010010160B6
:101AF000032000F075F80F2000F006F800F024F83D
:101B0000002010BD0020024070B50D4D04464FF47A
:101B10007A712878B1FBF0F00A490968B1FBF0F05E
:101B200000F0C6FB48B9102C07D200222146501EF7
:101B300000F036F800206C6070BD012070BD000020
:101B4000000000200C0000200C4808B5816941F01D
:101B500001018161816901F001010091C16941F0D8
:101B60008051C161C06900F0805000900448416814
:101B700021F0E06141F08061416008BD0010024049
:101B800000000140002809DB00F01F020121914004
:101B90004009800000F1E020C0F80011704700000B
:101BA000F0B40E4B1B680C46C3F30223C3F10705C8
:101BB000042D00D90425191D072901D2002300E0B6
:101BC000DB1E012606FA05F1491E214099409E4080
:101BD000761E16403143F0BC00F0ABBD0CED00E0CA
:101BE000064900F0070208684FF6FF03184040EA74
:101BF0000220034A10430860704700000CED00E02B
:101C00000000FA0510B529A401461DCC86B08DE868
:101C10001D002AA02A4C006804900020012923D02E
:101C200002293AD010291DD161682268D20119D544
:101C3000C1F38342C9031DF8020009D5616804AAF3
:101C4000C1F34041515C1F4AB2FBF1F1484301E04E
:101C50001D4948436168490204D440005FF0030114
:101C6000B0FBF1F006B010BD226AC2F301210129D8
:101C700003D1920701D5C803F4E7022905D1626AAE
:101C8000920702D549F64040ECE70329EAD12168E2
:101C90008903E7D54FF22440E4E700F033F96168A7
:101CA000C1F38131491C4900DAE700000203040551
:101CB000060708090A0B0C0D0E0F10100102000098
:101CC0000010024000127A0000093D002DE9F8439F
:101CD00005460078354CC00754D0E0690026C000A6
:101CE00008D4E06940F08050E061E069012600F02E
:101CF000805000902E480168C90512D401688046C2
:101D000041F480710160FFF7DFFE074605E000BF88
:101D1000FFF7DAFEC01B642823D8D8F80000C005FE
:101D2000F6D5206A10F4407021D0A98801F44071E2
:101D300081421CD0206A1F49012220F440700A60B1
:101D400000220A602062C00711D0FFF7BDFE0746DF
:101D500041F2883808E000BFFFF7B6FEC11B4145DD
:101D600002D90320BDE8F883206A8007F4D5206AF1
:101D7000696820F44070084320621EB1E06920F0D9
:101D80008050E0612878800705D56068A96820F454
:101D90004040084360602878C00605D56068E9685F
:101DA00020F48000084360600020DBE70010024060
:101DB00000700040400442422DE9F0470F46050004
:101DC00061D0434E306800F00700B84209D2306855
:101DD00020F0070038433060306800F00700B84258
:101DE00051D128683B4C810712D5400703D5606864
:101DF00040F4E06060602878000703D5606840F434
:101E0000605060606068A96820F0F000084360607E
:101E10002878C00728D06868012810D021680228D7
:101E200010D0890700292EDA616821F003010143EF
:101E30006160FFF749FE804641F288390DE0216874
:101E40008903EFE78901EDE7FFF73EFEA0EB08010C
:101E5000494502D90320BDE8F0876068696800F051
:101E60000C00B0EB810FEFD1306800F00700B842F2
:101E70000BD9306820F0070038433060306800F03C
:101E80000700B84201D00120E5E72878400705D5D2
:101E90006068E96820F4E060084360602878000723
:101EA00006D56068296920F4605040EAC10060608E
:101EB00000F038F86168084AC1F30311515CC8406A
:101EC0000649086006480068FFF71EFE0020C2E7CA
:101ED0000020024000100240A43200080C00002044
:101EE000040000200448054900684968044AC1F319
:101EF0000221515CC84070470C00002000100240D5
:101F0000B43200080448054900684968044AC1F32E
:101F1000C221515CC84070470C00002000100240F4
:101F2000B432000812A185B00FC98DE80F0014A0CB
:101F3000144A006804905168134801F00C03042B04
:101F400010D0082B0ED1C1F38343C9031DF8030041
:101F50000AD5516804AAC1F34041515C0A4A504372
:101F6000B0FBF1F005B0704708494843FAE70000BC
:101F700002030405060708090A0B0C0D0E0F1010CA
:101F8000010200000010024000127A0000093D002A
:101F90002DE9F84F040070D02078C04DC00749D01B
:101FA0006868C0F38100012807D06868C0F3810029
:101FB000022809D16868C00306D52868800339D58E
:101FC00060680028E7D035E06068B0F5803F0BD04E
:101FD00010B1B0F5A02F11D0286820F4803028600F
:101FE000286820F4802002E0286840F480302860CF
:101FF000606890B1FFF768FD06460AE0286840F483
:1020000080202860F0E700BFFFF75EFD801B64289A
:1020100073D828688003F7D50CE0FFF755FD064616
:1020200005E000BFFFF750FD801B6428F0D828684A
:102030008003F7D420789A4E80074FF001094FF0C3
:10204000000839D5686810F00C0F07D06868C0F335
:102050008100022809D16868C00306D42868800777
:1020600014D52069012808D110E02069B0B1C6F864
:102070000090FFF729FD074605E00AE1FFF724FD80
:10208000C01B0228C4D828688007F7D52868616972
:1020900020F0F80040EAC10028600DE0C6F800809A
:1020A000FFF712FD074604E0FFF70EFDC01B0228F4
:1020B00023D828688007F7D4207800072CD57948E2
:1020C000A169D9B1C0F80090FFF7FEFC074604E013
:1020D000FFF7FAFCC01B02280FD8686A8007F7D503
:1020E00071484FF4FA510068B0FBF1F0009000BF66
:1020F0000098411E0091FAD20EE080E0C0F8008006
:10210000FFF7E2FC074604E0FFF7DEFCC01B0228F5
:1021100075D8686A8007F7D42078400760D5E869E9
:102120000027C00008D4E86940F08050E861E86901
:10213000012700F0805000905C480168C90513D465
:102140000168834641F480710160FFF7BDFC82465F
:1021500006E000BFFFF7B8FCA0EB0A0064284ED8E9
:10216000DBF80000C005F5D5E06801280AD008B109
:10217000052813D0286A20F001002862286A20F080
:10218000040002E0286A40F001002862E06841F2A1
:10219000883B98B1FFF798FC82460BE0286A40F034
:1021A00004002862EEE700BFFFF78EFCA0EB0A01F7
:1021B00059455AD8286A8007F6D50CE0FFF784FC09
:1021C000824605E0FFF780FCA0EB0A0159454CD898
:1021D000286A8007F6D41FB1E86920F08050E861D2
:1021E000E06988B36968C1F38101022944D00228FB
:1021F000C6F8608004D0FFF767FC044638E034E09E
:10220000FFF762FC074604E0FFF75EFCC01B0228F4
:102210002BD828688001F7D4206AB0F5803F05D11B
:102220006868A16820F4003008436860D4E90801B8
:102230000843696821F4741108436860C6F8609027
:10224000FFF742FC044606E025E000BFFFF73CFC38
:10225000001B022809D828688001F7D51BE000BFC1
:10226000FFF732FC001B022802D90320BDE8F88FDB
:1022700028688001F4D40EE00128F7D06868226A4B
:1022800000F48031914204D1616A00F470108842F8
:1022900001D00120EAE70020E8E70000001002403A
:1022A00000004242800442420C00002000700040C6
:1022B00010B5401EB0F1807F01D3012010BD4FF05A
:1022C000E02460610F21601700F033FA0020A06164
:1022D00007202061002010BD70B5040004D094F8E0
:1022E0003D00002510B106E0012070BD84F83C508F
:1022F000204600F023F8242084F83D002068C168BF
:1023000021F40051C160204600F084F92068016981
:1023100021F4904101612068416921F02A01416165
:102320002068C16841F40051C1602564202084F810
:102330003D0084F83E00002070BD000030B585B03F
:102340000024009401940294039400681449884284
:1023500023D11448C16941F40031C161C16901F45C
:1023600000310491816941F00401816180690E4D61
:1023700000F004000490042000900220019003204B
:10238000039069462846FFF7A9FA0820CDE9000422
:10239000694628460294FFF7A1FA05B030BD000057
:1023A0000044004000100240000801402DE9F843BD
:1023B000044690F83D001F4616460D4620284CD195
:1023C000C5B1BEB194F83C00012846D0012084F884
:1023D0003C004FF00008C4F84080212084F83D0004
:1023E000FFF772FBA6848146E684A068B0F5805FA3
:1023F00003D004E00120BDE8F883206928B12E460F
:102400005FF0000584F83C800EE00026FAE78021AA
:10241000204600F05BF9A0B9AEB116F8010B2168B7
:102420004860E08C401EE084E08C4B464FF0000298
:1024300000970028EBD14FF04001204600F046F90C
:1024400030B10320D7E735F8020BC0F30800E6E708
:10245000202084F83D000020CDE70220CBE7FEE7F6
:102460003EB500212148009101911F4A029102606E
:102470009215826001250573017504244FF46022D2
:102480000461C2614160FEF7A1FF08B1FEF73AFEA8
:10249000CDE900450525694614480295FEF7A2FEE0
:1024A00008B1FEF72FFE0220CDE9005069460F4823
:1024B000FEF798FE08B1FEF725FE062000900320E7
:1024C000019069460948FEF78DFE08B1FEF71AFE35
:1024D0000720CDE9000469460448FEF783FE002882
:1024E00001D0FEF70FFE3EBD002401401C0000207D
:1024F000094808B5416941F0010141614069002284
:1025000000F00100009011460B20FFF749FBBDE8E9
:1025100008400B20FFF736BB0010024000B585B025
:1025200000200190029003900C48816941F0200145
:102530008161816901F020010491816941F0040108
:1025400081618069694600F0040004904FF4407096
:1025500000900348FFF7C2F905B000BD001002402B
:10256000000801400C4810B50A4901604FF4E13100
:102570004160002181600C22C160C0E904128161C8
:10258000C161FFF7A9FE002803D0BDE81040FEF7A7
:10259000B9BD10BD0044004090000020FEE7FEE7FA
:1025A00070477047FFF796BA30B593B02821684658
:1025B000FDF72CFF14210AA8FDF728FF00240120B5
:1025C0000F9402250490009510201194059010940A
:1025D000129407946846FFF7DBFC08B172B6FEE779
:1025E0000F20CDE90A040C940D9400210AA80E9442
:1025F000FFF7E2FB08B172B6FEE70FA80F95119442
:10260000FFF764FB002801D072B6FEE713B030BDBF
:102610007047000070B5044600680169E26821F463
:102620004051114301612169A06808436169084371
:102630002168CA6841F20C639A430243CA60206869
:102640004169A26921F44071114341611E4920682A
:10265000884202D1FFF756FC01E0FFF743FC00EB94
:10266000C00101EB0012606864218000B2FBF0F34E
:10267000B3FBF1F36FF018067343B2FBF0F5B2FB56
:10268000F0F605EB8305322303EB0515B5FBF1F5F9
:10269000B6FBF1F605F0F00505EB0615B2FBF0F61A
:1026A000B2FBF0F0B0FBF1F06FF01802504306EB14
:1026B000800003EB0010B0FBF1F0216800F00F0088
:1026C0002844886070BD0000003801402DE9F041C9
:1026D000984617460E460446069D1DE0681C1BD012
:1026E0002DB1FFF7F1F9A0EB0800A84214D920683A
:1026F000C16821F4D071C1602068416921F00101F5
:102700004161202084F83D0084F83E00002084F8D8
:102710003C000320BDE8F0812068006836EA000034
:1027200004D00020B842D9D00020F3E70120F9E717
:10273000FEE70907090E002804DB00F1E02080F81D
:102740000014704700F00F0000F1E02080F8141D25
:10275000704730380A2801D20120704700207047A6
:102760008A68002A01DCFEF71EB8521E8A604A6899
:10277000C0B2531C4B601070704700009AB0FFF756
:10278000B1F9FFF711FFFFF7C9FEFFF7B1FEFFF741
:1027900067FEFFF7E7FE4E48FEF7B6FC4FF06638DF
:1027A0004C4D4FF400712846FFF788F908B100241A
:1027B00000E001244FF480712846FFF77FF908B14B
:1027C000002000E0012004EB840100EB4107082217
:1027D00002A93F48FEF7DAFE029800F0E4FA42460A
:1027E0003D4B00F0F3FA6FF00B0200F015FD3B4A91
:1027F0003B4B00F0E9FB00223A4B00F0E7FA42467F
:10280000394B00F049F90022384B00F095F800F000
:102810009BFA0646039800F0C6FADFF8D4904246C9
:102820004B4600F0D3FADFF8CCA04246534600F006
:10283000CDFADFF8C4B0314B5A4600F0D1FB304A34
:10284000304B00F029F900F07FFA0546049800F0BB
:10285000AAFA42464B4600F0B9FA4246534600F007
:10286000B5FA5A46254B00F0BBFB254A254B00F034
:1028700013F900F069FA0446059800F094FA42460C
:102880004B4600F0A3FA4246534600F09FFA5A46E0
:102890001A4B00F0A5FB1A4A1A4B00F0FDF800F0A5
:1028A00053FACDE900402B463246394616A0FDF7D3
:1028B00097FC0AA8FDF78BFD82B24FF0FF330AA9FF
:1028C0001C48FFF773FD4FF4FA60FEF7F5FF67E76A
:1028D0001C0000200008014066660A40E17A14AE40
:1028E00047E1F63F00408F406666114000003940E6
:1028F00066664A3F666614407B14AE47E17AA43FA1
:1029000043CA4FAA7D3A6E3F6C6F63616C3A2532C1
:10291000640D0A2C2070726573733A25640D0A2CBD
:1029200074656D703A5B25642C25642C25645D0DFF
:102930000A0000009000002010B591EA030F48BF84
:1029400083F0004300F15483841A71EB030C05D229
:10295000121943EB0C03001B61EB0C01DFF824E1BF
:102960004FEA1154A4EB135C1EEA430F18BF9EEA12
:10297000445F73D023EA0E03DCF1200E21EA0451F8
:1029800043F4801332D322FA0CFE10EB0E0023FA2C
:102990000CFE41EB0E01CCF1200E03FA0EFE10EB03
:1029A0000E0051F10001B1F5801FCCF1200E32D2A2
:1029B00001EB045112FA0EF2BDE8104058BF704707
:1029C000401C38BF5FEA420218BF7047002814BF9E
:1029D00020F0010041F100014FEA410313F5001F0F
:1029E00038BF7047A1F1C04100F0E8BA012A43EBBB
:1029F0000302ACF1200CDCF11F0E32BF4FF0000ED1
:102A000023FA0CF310EB030041EB0451B4EB115F1C
:102A1000D0D0A1EB045101F5801149085FEA3000E4
:102A200001EB04510ED350F1000038BF12FA0EFE34
:102A300008D1BDE81040C9E7401C38BF5FEA420238
:102A4000CAD1C3E7BDE810404FEA410313F5001FA8
:102A500038BF7047A1F1C04100F0B0BA9EEA445FB0
:102A600008D011EA5E0FBDE8104004BF01F000413C
:102A700000207047BDE8104070B500F051FA00BF6B
:102A800064FBBE3E0000E0FF02494FF0000000F092
:102A900091BB00BF0000F87F2DE9C04130B4DFF8E2
:102AA000A0C23CEA111418BF3CEA131400F0EC80F9
:102AB00081EA03051CEA111444EAD57418BF1CEA24
:102AC000131500F0C780A4EB05044FF0004545EA5C
:102AD000C12145EAC32341EA505143EA525304F16C
:102AE0007F74994204F500344FEAC0204FEAC222B5
:102AF00008BF904200F09C804FEA13650FF2401629
:102B0000765D4FEA134506FB05F7C7F1807706FBB4
:102B100007F74FEAD737A7FB03687642C8F5803836
:102B2000A7FB06CE38BFA8F1010807FB08E64FF067
:102B3000000EA6FB028CE6FB03CEDCF1000CCEF10E
:102B4000004E38BFAEF1010EA6FB0C584FF0000747
:102B50004FF00005E6FB0E87A1FB08C6A0FB07CEE1
:102B600016EB0E0645F10005E1FB076515F1E04E99
:102B70007EBFA4F580345FEA46066D4116F18007FA
:102B800045F100054FEA17274FEA066647EA056751
:102B9000A6F1DE46B6F1805F4FEA15251FD938460B
:102BA00024F0010C05EBC471BCF1FE6F01EB0C11BC
:102BB00002D8F0BCBDE8008124425CBF01F5801E54
:102BC0009EEAC47F02D4F0BCBDE80081244238D420
:102BD000F0BCA1F1C041BDE8004100F0EFB94FEAFF
:102BE000D22242EA43524FEAD323A7FB02864FEA9E
:102BF000D02040EA415007FB03661EEA0E0F4FEA61
:102C0000D12105FB026658BFA6EB0056B6EB005675
:102C10004FEA520E4EEAC37E18EB0E0E56EB530EE1
:102C2000BDD518EB02085E417F1C55F10005B6E7E3
:102C30004FF480154FF000074FF000064FF00008EA
:102C4000ADE7F0BC4FF0000001F1C04101F00041E0
:102C5000BDE8008111EA0C1F0CEA131500D00CE04E
:102C600013EA0C1F00F025804FF00000F0BC81EA51
:102C7000030101F00041BDE80081F0BCBDE8004166
:102C800081EA030100F09AB9F0BCBDE8004170B5DB
:102C900000F046F9097EFC3E00F007B881EA030126
:102CA0004FF0000001F00041704781EA030100F09D
:102CB00085B9F0BCBDE800414FF0000021497047E4
:102CC000FFFDFBF9F7F5F4F2F0EEEDEBE9E8E6E4F1
:102CD000E3E1E0DEDDDBDAD8D7D5D4D3D1D0CFCD78
:102CE000CCCBCAC8C7C6C5C4C2C1C0BFBEBDBCBBB1
:102CF000BAB9B8B7B6B5B4B3B2B1B0AFAEADACABAC
:102D0000AAA9A8A8A7A6A5A4A3A3A2A1A09F9F9E85
:102D10009D9C9C9B9A999998979796959594939337
:102D2000929191908F8F8E8E8D8C8C8B8B8A8989CE
:102D30008888878786858584848383828281818051
:102D40000000FF070000F87F4FEA41034FEA5353AA
:102D5000A3F58063D3F11E03C8BFD3F1210C0CDDB2
:102D60004FF0004242EAC12242EA505232FA03FCDA
:102D70008CEAE17CACEBE1707047102BC4BF002003
:102D8000704703F5787CBCF1FF3F04D06FF0004240
:102D900082EA2100704770B500F0C2F849922480A1
:102DA00000207047F2E7B0FA80F310FA03F10AD07E
:102DB000C3F11D0303F580634FEA41504FEA03520C
:102DC00002EBD12170474FF000007047DFF848C197
:102DD00070B51CEA111E1EBF1CEA13159EEA0C0FEB
:102DE00095EA0C0F00F06F8081EA030423EA4C138C
:102DF0004EEAD47E21EA4C1141F4801143F4801351
:102E0000AE44A1FB024CA0FB0365AEF17F7E3619F8
:102E100055EB0C05A1FB034C4CF10003A0FB021C7D
:102E200016EB0C06654153F10003094218BF46F04A
:102E3000010613F4007F0BD14FEA03314FEA05304E
:102E4000340341EA155140EA16506FF003020AE0DC
:102E50004FEAC3214FEAC520F40241EA555140EA46
:102E600056506FF0020202EB2E4201EB025585EA4A
:102E7000CE710AD05FEA440C18BF24F0004450F130
:102E8000000041F1000120EAD47040F2FE7C62456E
:102E900000D270BDA84214BF4FF080444FF04044B0
:102EA000002E08BF0024BEF1806FA8BFA1F1C04171
:102EB000BDE8704080F282804FF0000001F1C04117
:102EC00001F0004170479EEA0C0F0CEA131518BF81
:102ED00095EA0C0F06D04FF0000081EA030E0EF0C9
:102EE000004170BD00F01CF88900013E00F007B8F9
:102EF00000F009B84FEA430C5FEA5C5C08D081EA55
:102F0000030100F05BB84FEA410C5FEA5C5CF6D16C
:102F10004FF00000014970470000FF070000F87FF4
:102F20000EF1020E2EF0030E5EF8046B364205D44D
:102F3000012A43EB030515F5001F12D8012841EBC8
:102F4000010C1CF5001F0CD80ED14FEAD17C15F5F1
:102F5000001F0CEB4C0C0CF1020C08BF4CEBD37CAB
:102F600004E04FF0080C01E04FEAD37C0CEB4C0579
:102F700026FA05F606F00706B6F1040C06D20EEBAB
:102F8000860CBDE870404CF0010C6047DFE80CF0A7
:102F9000090B02024FF000414FF00000A1F50021A3
:102FA00070BD19461046012851EB010418BFD4F535
:102FB000001484BF002001F0004170BD0808A0F596
:102FC00000114FEA3101704791EA030F10B581F00B
:102FD00000413FF5B9AC83F0004300F009B80000B0
:102FE00010B591EA030F48BF83F000433FF5ACAC46
:102FF000841A71EB030C07D212198CF0004C43EBCE
:103000000C03001B61EB0C01DFF8A4E14FEA115443
:10301000A4EB135C1EEA430F18BF9EEA445F00F066
:10302000B08023EA6E03524221EA0451C3EB6E03DF
:1030300038BF5B1EDCF1200E25D322FA0CFE10EB0C
:103040000E0043FA0CFE41EB0E01CCF1200E03FA08
:103050000EFE10EB0E0051F10001CCF1200E29D430
:1030600012FA0EF201EB0451BDE8104058BF704750
:10307000401C1CBFB2F1004F704700280CBF491C18
:1030800020F00100704712EB020E43EB030218BF61
:103090004FF0010E4EEA4202ACF1200CDCF11E0EA4
:1030A00054D943FA0CFE10EB0E0051F1FF31CCF174
:1030B0001E0ED5D50EF1010E12FA0EFE404141EB67
:1030C000010101EB445C5FEA5C5C10D910EBDE703F
:1030D00001EB045138BFBEF1004FBDE8104018BFEE
:1030E000704700280CBF491C20F00100704730D207
:1030F0004FEAD42C11F5001124F400641BD0B1FA6E
:1031000081F20B3AA41AA41ED2F12003914030FAA6
:1031100003F31943904001EBCC71002C01EB0451F7
:10312000BDE81040A8BF704701F1C0414FF000005A
:1031300001F000417047B0FA80F310FA03F100D1BA
:1031400010BDE41A173C4805C90AE4E701EB045135
:1031500010BD491001EB0451BDE810404FEA3000AA
:1031600002E04FF0000170474A0008BF0042F8D06B
:10317000B2F5001F28BF704701F000414FF000007A
:1031800070479EEA445F07D011EA5E0FBDE8104029
:1031900004BF002100207047BDE8104070B5FFF764
:1031A000BFFE00BF40DFF63E83F00041104670478F
:1031B0000000E0FF0CF00F03092B08BF082000F00F
:1031C00059800A2B0BD0082B18BF704708BF1CF082
:1031D000400F0AD04FF000004FF0000170471CF084
:1031E000400F18BF4FF0004070471CF0100F08D080
:1031F00020F0704300F07F4242EAD3014FEA43706F
:10320000704700F0604021F07F4242EA000201F086
:103210007F4040EA727070474FF0FF0C4CF4E06C56
:103220001CEA11531CBF9CEA030C9445C2BFDA424E
:1032300001EB02517047002B0DD0BCF1000F0FD0F5
:10324000002A01F00041A4BF41F0E04141F07F615C
:103250004FF00000704701F000414FF00000704750
:1032600050EA01334FF09B0C18BF4CF0806C7FF498
:103270000BAC70471CF4801F11D01CF4E02F03D05E
:103280006FEACC31490070474FF04050EFF30082B5
:1032900022F0704242EA000282F3008870474FF049
:1032A000000070470000000000000000010203045D
:1032B0000607080900000000010203043A747400C4
:1032C0003A7474003A747400E83200080000002078
:1032D0001C00000028010008043300081C00002026
:1032E0001408000044010008010000001000000064
:1032F000000000000024F4000000000000000000B6
:0433000000000000C9
:04000005080000ED02
:00000001FF
